{
  "_format": "hh-sol-artifact-1",
  "contractName": "ConvertLib",
  "sourceName": "contracts/ConvertLib.sol",
  "abi": [
    {
      "constant": true,
      "inputs": [
        {
          "name": "amount",
          "type": "uint256"
        },
        {
          "name": "conversionRate",
          "type": "uint256"
        }
      ],
      "name": "convert",
      "outputs": [
        {
          "name": "convertedAmount",
          "type": "uint256"
        }
      ],
      "payable": false,
      "stateMutability": "pure",
      "type": "function"
    }
  ],
  "bytecode": "0x609a610026600b82828239805160001a6073141515601957fe5b30600052607381538281f3fe730000000000000000000000000000000000000000301460806040526004361060335760003560e01c806396e4ee3d146038575b600080fd5b605860048036036040811015604c57600080fd5b5080359060200135606a565b60408051918252519081900360200190f35b029056fea165627a7a723058201cd590b8a2cd1f096354fd3d37d728e56a0b743e6fe126689954cbacb4ff29f90029",
  "linkReferences": {},
  "deployedLinkReferences": {}
}