{
  "_format": "hh-sol-artifact-1",
  "contractName": "Undeployed",
  "sourceName": "contracts/Undeployed.sol",
  "abi": [
    {
      "constant": false,
      "inputs": [],
      "name": "f",
      "outputs": [],
      "payable": false,
      "stateMutability": "nonpayable",
      "type": "function"
    },
    {
      "anonymous": false,
      "inputs": [
        {
          "indexed": false,
          "name": "val",
          "type": "uint256"
        }
      ],
      "name": "Amount",
      "type": "event"
    }
  ],
  "bytecode": "0x608060405234801561001057600080fd5b5061011e806100206000396000f3fe6080604052348015600f57600080fd5b506004361060285760003560e01c806326121ff014602d575b600080fd5b60336035565b005b600073__$790e28c6efc44c91dd5ccaef91022121eb$__6396e4ee3d6005806040518363ffffffff1660e01b8152600401808381526020018281526020019250505060206040518083038186803b158015608e57600080fd5b505af415801560a1573d6000803e3d6000fd5b505050506040513d602081101560b657600080fd5b50516040805182815290519192507fee0e21a0909c175792d67fa4e7c4f99d844405993e69b1ac9985af378f4cda4b919081900360200190a15056fea165627a7a7230582091058d233a7018dc93ad28b691fee0dbdef75adfca595bc7c2f788e6cbea99c30029",
  "linkReferences": {
    "contracts/ConvertLib.sol": {
      "ConvertLib": [
        {
          "length": 20,
          "start": 89
        }
      ]
    }
  },
  "deployedLinkReferences": {
    "contracts/ConvertLib.sol": {
      "ConvertLib": [
        {
          "length": 20,
          "start": 57
        }
      ]
    }
  }
}