{
  "_format": "hh-sol-artifact-1",
  "contractName": "Duplicate",
  "sourceName": "contracts/DuplicateA.sol",
  "abi": [
    {
      "constant": false,
      "inputs": [],
      "name": "a",
      "outputs": [],
      "payable": false,
      "stateMutability": "nonpayable",
      "type": "function"
    }
  ],
  "bytecode": "0x6080604052348015600f57600080fd5b50606880601d6000396000f3fe6080604052348015600f57600080fd5b506004361060285760003560e01c80630dbe671f14602d575b600080fd5b60336035565b005b600560005556fea165627a7a7230582098c049c9b2969e0a2391e85798872b114aea804e6fbe69a85359009eb4cd865f0029",
  "linkReferences": {},
  "deployedLinkReferences": {}
}