{
  "_format": "hh-sol-artifact-1",
  "contractName": "VariableCosts",
  "sourceName": "contracts/VariableCosts.sol",
  "abi": [
    {
      "constant": false,
      "inputs": [
        {
          "name": "err",
          "type": "bool"
        }
      ],
      "name": "methodThatThrows",
      "outputs": [],
      "payable": false,
      "stateMutability": "nonpayable",
      "type": "function"
    },
    {
      "constant": true,
      "inputs": [],
      "name": "getBalance",
      "outputs": [
        {
          "name": "",
          "type": "uint256"
        }
      ],
      "payable": false,
      "stateMutability": "view",
      "type": "function"
    },
    {
      "constant": false,
      "inputs": [
        {
          "name": "payment",
          "type": "uint256"
        },
        {
          "name": "recipient",
          "type": "address"
        }
      ],
      "name": "transferPayment",
      "outputs": [],
      "payable": false,
      "stateMutability": "nonpayable",
      "type": "function"
    },
    {
      "constant": false,
      "inputs": [
        {
          "name": "a",
          "type": "address"
        }
      ],
      "name": "unusedMethod",
      "outputs": [],
      "payable": false,
      "stateMutability": "nonpayable",
      "type": "function"
    },
    {
      "constant": true,
      "inputs": [
        {
          "name": "x",
          "type": "uint256"
        }
      ],
      "name": "viewFn",
      "outputs": [
        {
          "name": "",
          "type": "address"
        }
      ],
      "payable": false,
      "stateMutability": "view",
      "type": "function"
    },
    {
      "constant": true,
      "inputs": [
        {
          "name": "x",
          "type": "uint256"
        }
      ],
      "name": "constantFn",
      "outputs": [
        {
          "name": "",
          "type": "address"
        }
      ],
      "payable": false,
      "stateMutability": "view",
      "type": "function"
    },
    {
      "constant": false,
      "inputs": [
        {
          "name": "dels",
          "type": "uint256[]"
        }
      ],
      "name": "removeFromMap",
      "outputs": [],
      "payable": false,
      "stateMutability": "nonpayable",
      "type": "function"
    },
    {
      "constant": true,
      "inputs": [
        {
          "name": "x",
          "type": "uint256"
        }
      ],
      "name": "pureFn",
      "outputs": [
        {
          "name": "",
          "type": "uint256"
        }
      ],
      "payable": false,
      "stateMutability": "pure",
      "type": "function"
    },
    {
      "constant": false,
      "inputs": [
        {
          "name": "payment",
          "type": "uint256"
        },
        {
          "name": "recipient",
          "type": "address"
        }
      ],
      "name": "sendPayment",
      "outputs": [],
      "payable": false,
      "stateMutability": "nonpayable",
      "type": "function"
    },
    {
      "constant": false,
      "inputs": [
        {
          "name": "adds",
          "type": "uint256[]"
        }
      ],
      "name": "addToMap",
      "outputs": [],
      "payable": false,
      "stateMutability": "nonpayable",
      "type": "function"
    },
    {
      "constant": false,
      "inputs": [],
      "name": "otherContractMethod",
      "outputs": [],
      "payable": false,
      "stateMutability": "nonpayable",
      "type": "function"
    },
    {
      "inputs": [],
      "payable": false,
      "stateMutability": "nonpayable",
      "type": "constructor"
    },
    {
      "payable": true,
      "stateMutability": "payable",
      "type": "fallback"
    },
    {
      "anonymous": false,
      "inputs": [
        {
          "indexed": true,
          "name": "_sender",
          "type": "address"
        },
        {
          "indexed": false,
          "name": "_value",
          "type": "uint256"
        }
      ],
      "name": "Deposit",
      "type": "event"
    }
  ],
  "bytecode": "0x608060405234801561001057600080fd5b5060405161001d9061005f565b604051809103906000f080158015610039573d6000803e3d6000fd5b50600280546001600160a01b0319166001600160a01b039290921691909117905561006b565b60858061073083390190565b6106b68061007a6000396000f3fe60806040526004361061009b5760003560e01c8063591d8bd011610064578063591d8bd01461019957806388a95495146101df578063a828eec51461028d578063c58a6ce8146102b7578063dfaa3136146102f0578063f86cc0091461039e5761009b565b8062cb1ae4146100da57806312065fe014610106578063137a3fa71461012d578063231c1ce8146101665780634b7fa6db14610199575b34156100d85760408051348152905133917fe1fffcc4923d04b559f4d29a8bfc6cda04eb5b0d3c460751c2402c5c5cc9109c919081900360200190a25b005b3480156100e657600080fd5b506100d8600480360360208110156100fd57600080fd5b503515156103b3565b34801561011257600080fd5b5061011b6103c6565b60408051918252519081900360200190f35b34801561013957600080fd5b506100d86004803603604081101561015057600080fd5b50803590602001356001600160a01b03166103cb565b34801561017257600080fd5b506100d86004803603602081101561018957600080fd5b50356001600160a01b0316610406565b3480156101a557600080fd5b506101c3600480360360208110156101bc57600080fd5b5035610452565b604080516001600160a01b039092168252519081900360200190f35b3480156101eb57600080fd5b506100d86004803603602081101561020257600080fd5b810190602081018135600160201b81111561021c57600080fd5b82018360208201111561022e57600080fd5b803590602001918460208302840111600160201b8311171561024f57600080fd5b91908080602002602001604051908101604052809392919081815260200183836020028082843760009201919091525092955061046d945050505050565b34801561029957600080fd5b5061011b600480360360208110156102b057600080fd5b50356104be565b3480156102c357600080fd5b506100d8600480360360408110156102da57600080fd5b50803590602001356001600160a01b03166104c1565b3480156102fc57600080fd5b506100d86004803603602081101561031357600080fd5b810190602081018135600160201b81111561032d57600080fd5b82018360208201111561033f57600080fd5b803590602001918460208302840111600160201b8311171561036057600080fd5b9190808060200260200160405190810160405280939291908181526020018383602002808284376000920191909152509295506104f1945050505050565b3480156103aa57600080fd5b506100d8610550565b80156103be57600080fd5b506005600055565b303190565b6040516001600160a01b0382169083156108fc029084906000818181858888f19350505050158015610401573d6000803e3d6000fd5b505050565b6103e860005260016020527f0790f8f5f10ef420d1a97e2b257888a110d70632898b2fc5c5bea6575f303f8a80546001600160a01b0319166001600160a01b0392909216919091179055565b6000908152600160205260409020546001600160a01b031690565b60005b81518110156104ba5760016000838381518110151561048b57fe5b6020908102909101810151825281019190915260400160002080546001600160a01b0319169055600101610470565b5050565b90565b6040516001600160a01b0382169083156108fc029084906000818181858888f1935050505015156104ba57600080fd5b60005b81518110156104ba573060016000848481518110151561051057fe5b602090810291909101810151825281019190915260400160002080546001600160a01b0319166001600160a01b03929092169190911790556001016104f4565b600260009054906101000a90046001600160a01b03166001600160a01b03166319ff1d216040518163ffffffff1660e01b8152600401600060405180830381600087803b1580156105a057600080fd5b505af11580156105b4573d6000803e3d6000fd5b50505050600260009054906101000a90046001600160a01b03166001600160a01b03166319ff1d216040518163ffffffff1660e01b8152600401600060405180830381600087803b15801561060857600080fd5b505af115801561061c573d6000803e3d6000fd5b50505050600260009054906101000a90046001600160a01b03166001600160a01b03166319ff1d216040518163ffffffff1660e01b8152600401600060405180830381600087803b15801561067057600080fd5b505af1158015610684573d6000803e3d6000fd5b5050505056fea165627a7a72305820890e120231d0fc9813ce5f996fd045233bcecc28f736848060d6a4416d029c6600296080604052348015600f57600080fd5b50606880601d6000396000f3fe6080604052348015600f57600080fd5b506004361060285760003560e01c806319ff1d2114602d575b600080fd5b60336035565b005b600560005556fea165627a7a72305820291fbf326628daac8864004b9b2a4fc0ef5a47f731890e380be746016beecbde0029",
  "linkReferences": {},
  "deployedLinkReferences": {}
}