{
  "_format": "hh-sol-artifact-1",
  "contractName": "VersionB",
  "sourceName": "contracts/EtherRouter/VersionB.sol",
  "abi": [
    {
      "constant": false,
      "inputs": [],
      "name": "setAnotherValue",
      "outputs": [],
      "payable": false,
      "stateMutability": "nonpayable",
      "type": "function"
    },
    {
      "constant": false,
      "inputs": [],
      "name": "setValue",
      "outputs": [],
      "payable": false,
      "stateMutability": "nonpayable",
      "type": "function"
    },
    {
      "inputs": [],
      "payable": false,
      "stateMutability": "nonpayable",
      "type": "constructor"
    }
  ],
  "bytecode": "0x6080604052348015600f57600080fd5b50606d8061001e6000396000f3fe6080604052348015600f57600080fd5b506004361060325760003560e01c8063441a7a271460375780634fa519fa146037575b600080fd5b603d603f565b005b56fea165627a7a72305820866ddbb701d2a0c27fd373a97dbf3bcb26570e6e21148df9026a4e77ee0abe4d0029",
  "linkReferences": {},
  "deployedLinkReferences": {}
}