{"contracts/DuplicateB.sol":{"Duplicate":{"abi":[{"constant":false,"inputs":[],"name":"b","outputs":[],"payable":false,"stateMutability":"nonpayable","type":"function"}],"evm":{"bytecode":{"linkReferences":{},"object":"6080604052348015600f57600080fd5b50606d80601d6000396000f3fe6080604052348015600f57600080fd5b506004361060285760003560e01c80634df7e3d014602d575b600080fd5b60336035565b005b6005600081905560015556fea165627a7a723058200d982a2a4176776502bfba86d19e07c4934d60c500b4dca2c6751abcc12cf6520029","opcodes":"PUSH1 0x80 PUSH1 0x40 MSTORE CALLVALUE DUP1 ISZERO PUSH1 0xF JUMPI PUSH1 0x0 DUP1 REVERT JUMPDEST POP PUSH1 0x6D DUP1 PUSH1 0x1D PUSH1 0x0 CODECOPY PUSH1 0x0 RETURN INVALID PUSH1 0x80 PUSH1 0x40 MSTORE CALLVALUE DUP1 ISZERO PUSH1 0xF JUMPI PUSH1 0x0 DUP1 REVERT JUMPDEST POP PUSH1 0x4 CALLDATASIZE LT PUSH1 0x28 JUMPI PUSH1 0x0 CALLDATALOAD PUSH1 0xE0 SHR DUP1 PUSH4 0x4DF7E3D0 EQ PUSH1 0x2D JUMPI JUMPDEST PUSH1 0x0 DUP1 REVERT JUMPDEST PUSH1 0x33 PUSH1 0x35 JUMP JUMPDEST STOP JUMPDEST PUSH1 0x5 PUSH1 0x0 DUP2 SWAP1 SSTORE PUSH1 0x1 SSTORE JUMP INVALID LOG1 PUSH6 0x627A7A723058 KECCAK256 0xd SWAP9 0x2a 0x2a COINBASE PUSH23 0x776502BFBA86D19E07C4934D60C500B4DCA2C6751ABCC1 0x2c 0xf6 MSTORE STOP 0x29 "},"methodIdentifiers":{"b()":"4df7e3d0"}}}}}