{"contracts/DuplicateA.sol":{"Duplicate":{"abi":[{"constant":false,"inputs":[],"name":"a","outputs":[],"payable":false,"stateMutability":"nonpayable","type":"function"}],"evm":{"bytecode":{"linkReferences":{},"object":"6080604052348015600f57600080fd5b50606880601d6000396000f3fe6080604052348015600f57600080fd5b506004361060285760003560e01c80630dbe671f14602d575b600080fd5b60336035565b005b600560005556fea165627a7a7230582098c049c9b2969e0a2391e85798872b114aea804e6fbe69a85359009eb4cd865f0029","opcodes":"PUSH1 0x80 PUSH1 0x40 MSTORE CALLVALUE DUP1 ISZERO PUSH1 0xF JUMPI PUSH1 0x0 DUP1 REVERT JUMPDEST POP PUSH1 0x68 DUP1 PUSH1 0x1D PUSH1 0x0 CODECOPY PUSH1 0x0 RETURN INVALID PUSH1 0x80 PUSH1 0x40 MSTORE CALLVALUE DUP1 ISZERO PUSH1 0xF JUMPI PUSH1 0x0 DUP1 REVERT JUMPDEST POP PUSH1 0x4 CALLDATASIZE LT PUSH1 0x28 JUMPI PUSH1 0x0 CALLDATALOAD PUSH1 0xE0 SHR DUP1 PUSH4 0xDBE671F EQ PUSH1 0x2D JUMPI JUMPDEST PUSH1 0x0 DUP1 REVERT JUMPDEST PUSH1 0x33 PUSH1 0x35 JUMP JUMPDEST STOP JUMPDEST PUSH1 0x5 PUSH1 0x0 SSTORE JUMP INVALID LOG1 PUSH6 0x627A7A723058 KECCAK256 SWAP9 0xc0 0x49 0xc9 0xb2 SWAP7 SWAP15 EXP 0x23 SWAP2 0xe8 JUMPI SWAP9 DUP8 0x2b GT 0x4a 0xea DUP1 0x4e PUSH16 0xBE69A85359009EB4CD865F0029000000 "},"methodIdentifiers":{"a()":"0dbe671f"}}}}}