{"contracts/ConvertLib.sol":{"ConvertLib":{"abi":[{"constant":true,"inputs":[{"name":"amount","type":"uint256"},{"name":"conversionRate","type":"uint256"}],"name":"convert","outputs":[{"name":"convertedAmount","type":"uint256"}],"payable":false,"stateMutability":"pure","type":"function"}],"evm":{"bytecode":{"linkReferences":{},"object":"609a610026600b82828239805160001a6073141515601957fe5b30600052607381538281f3fe730000000000000000000000000000000000000000301460806040526004361060335760003560e01c806396e4ee3d146038575b600080fd5b605860048036036040811015604c57600080fd5b5080359060200135606a565b60408051918252519081900360200190f35b029056fea165627a7a723058201cd590b8a2cd1f096354fd3d37d728e56a0b743e6fe126689954cbacb4ff29f90029","opcodes":"PUSH1 0x9A PUSH2 0x26 PUSH1 0xB DUP3 DUP3 DUP3 CODECOPY DUP1 MLOAD PUSH1 0x0 BYTE PUSH1 0x73 EQ ISZERO ISZERO PUSH1 0x19 JUMPI INVALID JUMPDEST ADDRESS PUSH1 0x0 MSTORE PUSH1 0x73 DUP2 MSTORE8 DUP3 DUP2 RETURN INVALID PUSH20 0x0 ADDRESS EQ PUSH1 0x80 PUSH1 0x40 MSTORE PUSH1 0x4 CALLDATASIZE LT PUSH1 0x33 JUMPI PUSH1 0x0 CALLDATALOAD PUSH1 0xE0 SHR DUP1 PUSH4 0x96E4EE3D EQ PUSH1 0x38 JUMPI JUMPDEST PUSH1 0x0 DUP1 REVERT JUMPDEST PUSH1 0x58 PUSH1 0x4 DUP1 CALLDATASIZE SUB PUSH1 0x40 DUP2 LT ISZERO PUSH1 0x4C JUMPI PUSH1 0x0 DUP1 REVERT JUMPDEST POP DUP1 CALLDATALOAD SWAP1 PUSH1 0x20 ADD CALLDATALOAD PUSH1 0x6A JUMP JUMPDEST PUSH1 0x40 DUP1 MLOAD SWAP2 DUP3 MSTORE MLOAD SWAP1 DUP2 SWAP1 SUB PUSH1 0x20 ADD SWAP1 RETURN JUMPDEST MUL SWAP1 JUMP INVALID LOG1 PUSH6 0x627A7A723058 KECCAK256 SHR 0xd5 SWAP1 0xb8 LOG2 0xcd 0x1f MULMOD PUSH4 0x54FD3D37 0xd7 0x28 0xe5 PUSH11 0xB743E6FE126689954CBAC 0xb4 SELFDESTRUCT 0x29 0xf9 STOP 0x29 "},"methodIdentifiers":{"convert(uint256,uint256)":"96e4ee3d"}}}}}