{"contracts/Undeployed.sol":{"Undeployed":{"abi":[{"constant":false,"inputs":[],"name":"f","outputs":[],"payable":false,"stateMutability":"nonpayable","type":"function"},{"anonymous":false,"inputs":[{"indexed":false,"name":"val","type":"uint256"}],"name":"Amount","type":"event"}],"evm":{"bytecode":{"linkReferences":{"contracts/ConvertLib.sol":{"ConvertLib":[{"length":20,"start":89}]}},"object":"608060405234801561001057600080fd5b5061011e806100206000396000f3fe6080604052348015600f57600080fd5b506004361060285760003560e01c806326121ff014602d575b600080fd5b60336035565b005b600073__$790e28c6efc44c91dd5ccaef91022121eb$__6396e4ee3d6005806040518363ffffffff1660e01b8152600401808381526020018281526020019250505060206040518083038186803b158015608e57600080fd5b505af415801560a1573d6000803e3d6000fd5b505050506040513d602081101560b657600080fd5b50516040805182815290519192507fee0e21a0909c175792d67fa4e7c4f99d844405993e69b1ac9985af378f4cda4b919081900360200190a15056fea165627a7a7230582091058d233a7018dc93ad28b691fee0dbdef75adfca595bc7c2f788e6cbea99c30029","opcodes":"PUSH1 0x80 PUSH1 0x40 MSTORE CALLVALUE DUP1 ISZERO PUSH2 0x10 JUMPI PUSH1 0x0 DUP1 REVERT JUMPDEST POP PUSH2 0x11E DUP1 PUSH2 0x20 PUSH1 0x0 CODECOPY PUSH1 0x0 RETURN INVALID PUSH1 0x80 PUSH1 0x40 MSTORE CALLVALUE DUP1 ISZERO PUSH1 0xF JUMPI PUSH1 0x0 DUP1 REVERT JUMPDEST POP PUSH1 0x4 CALLDATASIZE LT PUSH1 0x28 JUMPI PUSH1 0x0 CALLDATALOAD PUSH1 0xE0 SHR DUP1 PUSH4 0x26121FF0 EQ PUSH1 0x2D JUMPI JUMPDEST PUSH1 0x0 DUP1 REVERT JUMPDEST PUSH1 0x33 PUSH1 0x35 JUMP JUMPDEST STOP JUMPDEST PUSH1 0x0 PUSH20 0x0 PUSH4 0x96E4EE3D PUSH1 0x5 DUP1 PUSH1 0x40 MLOAD DUP4 PUSH4 0xFFFFFFFF AND PUSH1 0xE0 SHL DUP2 MSTORE PUSH1 0x4 ADD DUP1 DUP4 DUP2 MSTORE PUSH1 0x20 ADD DUP3 DUP2 MSTORE PUSH1 0x20 ADD SWAP3 POP POP POP PUSH1 0x20 PUSH1 0x40 MLOAD DUP1 DUP4 SUB DUP2 DUP7 DUP1 EXTCODESIZE ISZERO DUP1 ISZERO PUSH1 0x8E JUMPI PUSH1 0x0 DUP1 REVERT JUMPDEST POP GAS DELEGATECALL ISZERO DUP1 ISZERO PUSH1 0xA1 JUMPI RETURNDATASIZE PUSH1 0x0 DUP1 RETURNDATACOPY RETURNDATASIZE PUSH1 0x0 REVERT JUMPDEST POP POP POP POP PUSH1 0x40 MLOAD RETURNDATASIZE PUSH1 0x20 DUP2 LT ISZERO PUSH1 0xB6 JUMPI PUSH1 0x0 DUP1 REVERT JUMPDEST POP MLOAD PUSH1 0x40 DUP1 MLOAD DUP3 DUP2 MSTORE SWAP1 MLOAD SWAP2 SWAP3 POP PUSH32 0xEE0E21A0909C175792D67FA4E7C4F99D844405993E69B1AC9985AF378F4CDA4B SWAP2 SWAP1 DUP2 SWAP1 SUB PUSH1 0x20 ADD SWAP1 LOG1 POP JUMP INVALID LOG1 PUSH6 0x627A7A723058 KECCAK256 SWAP2 SDIV DUP14 0x23 GASPRICE PUSH17 0x18DC93AD28B691FEE0DBDEF75ADFCA595B 0xc7 0xc2 0xf7 DUP9 0xe6 0xcb 0xea SWAP10 0xc3 STOP 0x29 "},"methodIdentifiers":{"f()":"26121ff0"}}}}}