{"contracts/EtherRouter/Factory.sol":{"Factory":{"abi":[{"constant":true,"inputs":[],"name":"versionB","outputs":[{"name":"","type":"address"}],"payable":false,"stateMutability":"view","type":"function"},{"constant":false,"inputs":[],"name":"deployVersionB","outputs":[],"payable":false,"stateMutability":"nonpayable","type":"function"},{"constant":false,"inputs":[],"name":"deployVersionA","outputs":[],"payable":false,"stateMutability":"nonpayable","type":"function"},{"constant":true,"inputs":[],"name":"versionA","outputs":[{"name":"","type":"address"}],"payable":false,"stateMutability":"view","type":"function"},{"inputs":[],"payable":false,"stateMutability":"nonpayable","type":"constructor"}],"evm":{"bytecode":{"linkReferences":{},"object":"608060405234801561001057600080fd5b50610292806100206000396000f3fe608060405234801561001057600080fd5b506004361061004c5760003560e01c806304d2eb381461005157806381b5a89e146100755780638ca0921d1461007f578063d1cd038414610087575b600080fd5b61005961008f565b604080516001600160a01b039092168252519081900360200190f35b61007d61009e565b005b61007d6100e9565b610059610134565b6001546001600160a01b031681565b6040516100aa90610143565b604051809103906000f0801580156100c6573d6000803e3d6000fd5b50600180546001600160a01b0319166001600160a01b0392909216919091179055565b6040516100f59061014f565b604051809103906000f080158015610111573d6000803e3d6000fd5b50600080546001600160a01b0319166001600160a01b0392909216919091179055565b6000546001600160a01b031681565b608b8061015c83390190565b6080806101e78339019056fe6080604052348015600f57600080fd5b50606d8061001e6000396000f3fe6080604052348015600f57600080fd5b506004361060325760003560e01c8063441a7a271460375780634fa519fa146037575b600080fd5b603d603f565b005b56fea165627a7a72305820866ddbb701d2a0c27fd373a97dbf3bcb26570e6e21148df9026a4e77ee0abe4d00296080604052348015600f57600080fd5b50606380601d6000396000f3fe6080604052348015600f57600080fd5b506004361060285760003560e01c80634fa519fa14602d575b600080fd5b60336035565b005b56fea165627a7a723058200c167d1065edeb65661ca966a614c40ed15588d7fb4e18aeeb13b0f3cbbe4e2c0029a165627a7a7230582020b5b90d0839aaca3296f50c34636bc4d6e4d4e2ba90ca5cfc5bc9d96b2611840029","opcodes":"PUSH1 0x80 PUSH1 0x40 MSTORE CALLVALUE DUP1 ISZERO PUSH2 0x10 JUMPI PUSH1 0x0 DUP1 REVERT JUMPDEST POP PUSH2 0x292 DUP1 PUSH2 0x20 PUSH1 0x0 CODECOPY PUSH1 0x0 RETURN INVALID PUSH1 0x80 PUSH1 0x40 MSTORE CALLVALUE DUP1 ISZERO PUSH2 0x10 JUMPI PUSH1 0x0 DUP1 REVERT JUMPDEST POP PUSH1 0x4 CALLDATASIZE LT PUSH2 0x4C JUMPI PUSH1 0x0 CALLDATALOAD PUSH1 0xE0 SHR DUP1 PUSH4 0x4D2EB38 EQ PUSH2 0x51 JUMPI DUP1 PUSH4 0x81B5A89E EQ PUSH2 0x75 JUMPI DUP1 PUSH4 0x8CA0921D EQ PUSH2 0x7F JUMPI DUP1 PUSH4 0xD1CD0384 EQ PUSH2 0x87 JUMPI JUMPDEST PUSH1 0x0 DUP1 REVERT JUMPDEST PUSH2 0x59 PUSH2 0x8F JUMP JUMPDEST PUSH1 0x40 DUP1 MLOAD PUSH1 0x1 PUSH1 0x1 PUSH1 0xA0 SHL SUB SWAP1 SWAP3 AND DUP3 MSTORE MLOAD SWAP1 DUP2 SWAP1 SUB PUSH1 0x20 ADD SWAP1 RETURN JUMPDEST PUSH2 0x7D PUSH2 0x9E JUMP JUMPDEST STOP JUMPDEST PUSH2 0x7D PUSH2 0xE9 JUMP JUMPDEST PUSH2 0x59 PUSH2 0x134 JUMP JUMPDEST PUSH1 0x1 SLOAD PUSH1 0x1 PUSH1 0x1 PUSH1 0xA0 SHL SUB AND DUP2 JUMP JUMPDEST PUSH1 0x40 MLOAD PUSH2 0xAA SWAP1 PUSH2 0x143 JUMP JUMPDEST PUSH1 0x40 MLOAD DUP1 SWAP2 SUB SWAP1 PUSH1 0x0 CREATE DUP1 ISZERO DUP1 ISZERO PUSH2 0xC6 JUMPI RETURNDATASIZE PUSH1 0x0 DUP1 RETURNDATACOPY RETURNDATASIZE PUSH1 0x0 REVERT JUMPDEST POP PUSH1 0x1 DUP1 SLOAD PUSH1 0x1 PUSH1 0x1 PUSH1 0xA0 SHL SUB NOT AND PUSH1 0x1 PUSH1 0x1 PUSH1 0xA0 SHL SUB SWAP3 SWAP1 SWAP3 AND SWAP2 SWAP1 SWAP2 OR SWAP1 SSTORE JUMP JUMPDEST PUSH1 0x40 MLOAD PUSH2 0xF5 SWAP1 PUSH2 0x14F JUMP JUMPDEST PUSH1 0x40 MLOAD DUP1 SWAP2 SUB SWAP1 PUSH1 0x0 CREATE DUP1 ISZERO DUP1 ISZERO PUSH2 0x111 JUMPI RETURNDATASIZE PUSH1 0x0 DUP1 RETURNDATACOPY RETURNDATASIZE PUSH1 0x0 REVERT JUMPDEST POP PUSH1 0x0 DUP1 SLOAD PUSH1 0x1 PUSH1 0x1 PUSH1 0xA0 SHL SUB NOT AND PUSH1 0x1 PUSH1 0x1 PUSH1 0xA0 SHL SUB SWAP3 SWAP1 SWAP3 AND SWAP2 SWAP1 SWAP2 OR SWAP1 SSTORE JUMP JUMPDEST PUSH1 0x0 SLOAD PUSH1 0x1 PUSH1 0x1 PUSH1 0xA0 SHL SUB AND DUP2 JUMP JUMPDEST PUSH1 0x8B DUP1 PUSH2 0x15C DUP4 CODECOPY ADD SWAP1 JUMP JUMPDEST PUSH1 0x80 DUP1 PUSH2 0x1E7 DUP4 CODECOPY ADD SWAP1 JUMP INVALID PUSH1 0x80 PUSH1 0x40 MSTORE CALLVALUE DUP1 ISZERO PUSH1 0xF JUMPI PUSH1 0x0 DUP1 REVERT JUMPDEST POP PUSH1 0x6D DUP1 PUSH2 0x1E PUSH1 0x0 CODECOPY PUSH1 0x0 RETURN INVALID PUSH1 0x80 PUSH1 0x40 MSTORE CALLVALUE DUP1 ISZERO PUSH1 0xF JUMPI PUSH1 0x0 DUP1 REVERT JUMPDEST POP PUSH1 0x4 CALLDATASIZE LT PUSH1 0x32 JUMPI PUSH1 0x0 CALLDATALOAD PUSH1 0xE0 SHR DUP1 PUSH4 0x441A7A27 EQ PUSH1 0x37 JUMPI DUP1 PUSH4 0x4FA519FA EQ PUSH1 0x37 JUMPI JUMPDEST PUSH1 0x0 DUP1 REVERT JUMPDEST PUSH1 0x3D PUSH1 0x3F JUMP JUMPDEST STOP JUMPDEST JUMP INVALID LOG1 PUSH6 0x627A7A723058 KECCAK256 DUP7 PUSH14 0xDBB701D2A0C27FD373A97DBF3BCB 0x26 JUMPI 0xe PUSH15 0x21148DF9026A4E77EE0ABE4D002960 DUP1 PUSH1 0x40 MSTORE CALLVALUE DUP1 ISZERO PUSH1 0xF JUMPI PUSH1 0x0 DUP1 REVERT JUMPDEST POP PUSH1 0x63 DUP1 PUSH1 0x1D PUSH1 0x0 CODECOPY PUSH1 0x0 RETURN INVALID PUSH1 0x80 PUSH1 0x40 MSTORE CALLVALUE DUP1 ISZERO PUSH1 0xF JUMPI PUSH1 0x0 DUP1 REVERT JUMPDEST POP PUSH1 0x4 CALLDATASIZE LT PUSH1 0x28 JUMPI PUSH1 0x0 CALLDATALOAD PUSH1 0xE0 SHR DUP1 PUSH4 0x4FA519FA EQ PUSH1 0x2D JUMPI JUMPDEST PUSH1 0x0 DUP1 REVERT JUMPDEST PUSH1 0x33 PUSH1 0x35 JUMP JUMPDEST STOP JUMPDEST JUMP INVALID LOG1 PUSH6 0x627A7A723058 KECCAK256 0xc AND PUSH30 0x1065EDEB65661CA966A614C40ED15588D7FB4E18AEEB13B0F3CBBE4E2C00 0x29 LOG1 PUSH6 0x627A7A723058 KECCAK256 KECCAK256 0xb5 0xb9 0xd ADDMOD CODECOPY 0xaa 0xca ORIGIN SWAP7 CREATE2 0xc CALLVALUE PUSH4 0x6BC4D6E4 0xd4 0xe2 0xba SWAP1 0xca 0x5c 0xfc JUMPDEST 0xc9 0xd9 PUSH12 0x261184002900000000000000 "},"methodIdentifiers":{"deployVersionA()":"8ca0921d","deployVersionB()":"81b5a89e","versionA()":"d1cd0384","versionB()":"04d2eb38"}}}}}