{"contracts/MultiContractFile.sol":{"MultiContractFileB":{"abi":[{"constant":false,"inputs":[],"name":"goodbye","outputs":[],"payable":false,"stateMutability":"nonpayable","type":"function"}],"evm":{"bytecode":{"linkReferences":{},"object":"6080604052348015600f57600080fd5b50606880601d6000396000f3fe6080604052348015600f57600080fd5b506004361060285760003560e01c806375fc8e3c14602d575b600080fd5b60336035565b005b600560005556fea165627a7a72305820b89fdc3743fad9496b2e2f38f16ee3e42b3462f181c12e9c1a7e4d4444ef71e60029","opcodes":"PUSH1 0x80 PUSH1 0x40 MSTORE CALLVALUE DUP1 ISZERO PUSH1 0xF JUMPI PUSH1 0x0 DUP1 REVERT JUMPDEST POP PUSH1 0x68 DUP1 PUSH1 0x1D PUSH1 0x0 CODECOPY PUSH1 0x0 RETURN INVALID PUSH1 0x80 PUSH1 0x40 MSTORE CALLVALUE DUP1 ISZERO PUSH1 0xF JUMPI PUSH1 0x0 DUP1 REVERT JUMPDEST POP PUSH1 0x4 CALLDATASIZE LT PUSH1 0x28 JUMPI PUSH1 0x0 CALLDATALOAD PUSH1 0xE0 SHR DUP1 PUSH4 0x75FC8E3C EQ PUSH1 0x2D JUMPI JUMPDEST PUSH1 0x0 DUP1 REVERT JUMPDEST PUSH1 0x33 PUSH1 0x35 JUMP JUMPDEST STOP JUMPDEST PUSH1 0x5 PUSH1 0x0 SSTORE JUMP INVALID LOG1 PUSH6 0x627A7A723058 KECCAK256 0xb8 SWAP16 0xdc CALLDATACOPY NUMBER STATICCALL 0xd9 0x49 PUSH12 0x2E2F38F16EE3E42B3462F181 0xc1 0x2e SWAP13 BYTE PUSH31 0x4D4444EF71E600290000000000000000000000000000000000000000000000 "},"methodIdentifiers":{"goodbye()":"75fc8e3c"}}}}}