{"contracts/EtherRouter/EtherRouter.sol":{"EtherRouter":{"abi":[{"constant":true,"inputs":[],"name":"resolver","outputs":[{"name":"","type":"address"}],"payable":false,"stateMutability":"view","type":"function"},{"constant":false,"inputs":[{"name":"_resolver","type":"address"}],"name":"setResolver","outputs":[],"payable":false,"stateMutability":"nonpayable","type":"function"},{"payable":true,"stateMutability":"payable","type":"fallback"}],"evm":{"bytecode":{"linkReferences":{},"object":"608060405234801561001057600080fd5b506101c9806100206000396000f3fe6080604052600436106100295760003560e01c806304f3bcec146101085780634e543b2614610139575b6001600160e01b031960003516151561004157610106565b6000805460408051600160e11b6337b474690281526001600160e01b0319843516600482015290516001600160a01b0390921691636f68e8d291602480820192602092909190829003018186803b15801561009b57600080fd5b505afa1580156100af573d6000803e3d6000fd5b505050506040513d60208110156100c557600080fd5b50519050803b8015156100d757600080fd5b36600060405137600060405136604051855af43d60006040513e8060018114610100573d604051fd5b3d604051f35b005b34801561011457600080fd5b5061011d61016c565b604080516001600160a01b039092168252519081900360200190f35b34801561014557600080fd5b506101066004803603602081101561015c57600080fd5b50356001600160a01b031661017b565b6000546001600160a01b031681565b600080546001600160a01b0319166001600160a01b039290921691909117905556fea165627a7a723058207ba5421bc5bc0aba73096ee7c35b26267d2ca9375c641d90e746382e94cf7c3c0029","opcodes":"PUSH1 0x80 PUSH1 0x40 MSTORE CALLVALUE DUP1 ISZERO PUSH2 0x10 JUMPI PUSH1 0x0 DUP1 REVERT JUMPDEST POP PUSH2 0x1C9 DUP1 PUSH2 0x20 PUSH1 0x0 CODECOPY PUSH1 0x0 RETURN INVALID PUSH1 0x80 PUSH1 0x40 MSTORE PUSH1 0x4 CALLDATASIZE LT PUSH2 0x29 JUMPI PUSH1 0x0 CALLDATALOAD PUSH1 0xE0 SHR DUP1 PUSH4 0x4F3BCEC EQ PUSH2 0x108 JUMPI DUP1 PUSH4 0x4E543B26 EQ PUSH2 0x139 JUMPI JUMPDEST PUSH1 0x1 PUSH1 0x1 PUSH1 0xE0 SHL SUB NOT PUSH1 0x0 CALLDATALOAD AND ISZERO ISZERO PUSH2 0x41 JUMPI PUSH2 0x106 JUMP JUMPDEST PUSH1 0x0 DUP1 SLOAD PUSH1 0x40 DUP1 MLOAD PUSH1 0x1 PUSH1 0xE1 SHL PUSH4 0x37B47469 MUL DUP2 MSTORE PUSH1 0x1 PUSH1 0x1 PUSH1 0xE0 SHL SUB NOT DUP5 CALLDATALOAD AND PUSH1 0x4 DUP3 ADD MSTORE SWAP1 MLOAD PUSH1 0x1 PUSH1 0x1 PUSH1 0xA0 SHL SUB SWAP1 SWAP3 AND SWAP2 PUSH4 0x6F68E8D2 SWAP2 PUSH1 0x24 DUP1 DUP3 ADD SWAP3 PUSH1 0x20 SWAP3 SWAP1 SWAP2 SWAP1 DUP3 SWAP1 SUB ADD DUP2 DUP7 DUP1 EXTCODESIZE ISZERO DUP1 ISZERO PUSH2 0x9B JUMPI PUSH1 0x0 DUP1 REVERT JUMPDEST POP GAS STATICCALL ISZERO DUP1 ISZERO PUSH2 0xAF JUMPI RETURNDATASIZE PUSH1 0x0 DUP1 RETURNDATACOPY RETURNDATASIZE PUSH1 0x0 REVERT JUMPDEST POP POP POP POP PUSH1 0x40 MLOAD RETURNDATASIZE PUSH1 0x20 DUP2 LT ISZERO PUSH2 0xC5 JUMPI PUSH1 0x0 DUP1 REVERT JUMPDEST POP MLOAD SWAP1 POP DUP1 EXTCODESIZE DUP1 ISZERO ISZERO PUSH2 0xD7 JUMPI PUSH1 0x0 DUP1 REVERT JUMPDEST CALLDATASIZE PUSH1 0x0 PUSH1 0x40 MLOAD CALLDATACOPY PUSH1 0x0 PUSH1 0x40 MLOAD CALLDATASIZE PUSH1 0x40 MLOAD DUP6 GAS DELEGATECALL RETURNDATASIZE PUSH1 0x0 PUSH1 0x40 MLOAD RETURNDATACOPY DUP1 PUSH1 0x1 DUP2 EQ PUSH2 0x100 JUMPI RETURNDATASIZE PUSH1 0x40 MLOAD REVERT JUMPDEST RETURNDATASIZE PUSH1 0x40 MLOAD RETURN JUMPDEST STOP JUMPDEST CALLVALUE DUP1 ISZERO PUSH2 0x114 JUMPI PUSH1 0x0 DUP1 REVERT JUMPDEST POP PUSH2 0x11D PUSH2 0x16C JUMP JUMPDEST PUSH1 0x40 DUP1 MLOAD PUSH1 0x1 PUSH1 0x1 PUSH1 0xA0 SHL SUB SWAP1 SWAP3 AND DUP3 MSTORE MLOAD SWAP1 DUP2 SWAP1 SUB PUSH1 0x20 ADD SWAP1 RETURN JUMPDEST CALLVALUE DUP1 ISZERO PUSH2 0x145 JUMPI PUSH1 0x0 DUP1 REVERT JUMPDEST POP PUSH2 0x106 PUSH1 0x4 DUP1 CALLDATASIZE SUB PUSH1 0x20 DUP2 LT ISZERO PUSH2 0x15C JUMPI PUSH1 0x0 DUP1 REVERT JUMPDEST POP CALLDATALOAD PUSH1 0x1 PUSH1 0x1 PUSH1 0xA0 SHL SUB AND PUSH2 0x17B JUMP JUMPDEST PUSH1 0x0 SLOAD PUSH1 0x1 PUSH1 0x1 PUSH1 0xA0 SHL SUB AND DUP2 JUMP JUMPDEST PUSH1 0x0 DUP1 SLOAD PUSH1 0x1 PUSH1 0x1 PUSH1 0xA0 SHL SUB NOT AND PUSH1 0x1 PUSH1 0x1 PUSH1 0xA0 SHL SUB SWAP3 SWAP1 SWAP3 AND SWAP2 SWAP1 SWAP2 OR SWAP1 SSTORE JUMP INVALID LOG1 PUSH6 0x627A7A723058 KECCAK256 PUSH28 0xA5421BC5BC0ABA73096EE7C35B26267D2CA9375C641D90E746382E94 0xcf PUSH29 0x3C00290000000000000000000000000000000000000000000000000000 "},"methodIdentifiers":{"resolver()":"04f3bcec","setResolver(address)":"4e543b26"}}}}}