{
  "_format": "hh-sol-artifact-1",
  "contractName": "Duplicate",
  "sourceName": "contracts/DuplicateB.sol",
  "abi": [
    {
      "constant": false,
      "inputs": [],
      "name": "b",
      "outputs": [],
      "payable": false,
      "stateMutability": "nonpayable",
      "type": "function"
    }
  ],
  "bytecode": "0x6080604052348015600f57600080fd5b50606d80601d6000396000f3fe6080604052348015600f57600080fd5b506004361060285760003560e01c80634df7e3d014602d575b600080fd5b60336035565b005b6005600081905560015556fea165627a7a723058200d982a2a4176776502bfba86d19e07c4934d60c500b4dca2c6751abcc12cf6520029",
  "linkReferences": {},
  "deployedLinkReferences": {}
}