{
  "_format": "hh-sol-artifact-1",
  "contractName": "EtherRouter",
  "sourceName": "contracts/EtherRouter/EtherRouter.sol",
  "abi": [
    {
      "constant": true,
      "inputs": [],
      "name": "resolver",
      "outputs": [
        {
          "name": "",
          "type": "address"
        }
      ],
      "payable": false,
      "stateMutability": "view",
      "type": "function"
    },
    {
      "constant": false,
      "inputs": [
        {
          "name": "_resolver",
          "type": "address"
        }
      ],
      "name": "setResolver",
      "outputs": [],
      "payable": false,
      "stateMutability": "nonpayable",
      "type": "function"
    },
    {
      "payable": true,
      "stateMutability": "payable",
      "type": "fallback"
    }
  ],
  "bytecode": "0x608060405234801561001057600080fd5b506101c9806100206000396000f3fe6080604052600436106100295760003560e01c806304f3bcec146101085780634e543b2614610139575b6001600160e01b031960003516151561004157610106565b6000805460408051600160e11b6337b474690281526001600160e01b0319843516600482015290516001600160a01b0390921691636f68e8d291602480820192602092909190829003018186803b15801561009b57600080fd5b505afa1580156100af573d6000803e3d6000fd5b505050506040513d60208110156100c557600080fd5b50519050803b8015156100d757600080fd5b36600060405137600060405136604051855af43d60006040513e8060018114610100573d604051fd5b3d604051f35b005b34801561011457600080fd5b5061011d61016c565b604080516001600160a01b039092168252519081900360200190f35b34801561014557600080fd5b506101066004803603602081101561015c57600080fd5b50356001600160a01b031661017b565b6000546001600160a01b031681565b600080546001600160a01b0319166001600160a01b039290921691909117905556fea165627a7a723058207ba5421bc5bc0aba73096ee7c35b26267d2ca9375c641d90e746382e94cf7c3c0029",
  "linkReferences": {},
  "deployedLinkReferences": {}
}