{
  "_format": "hh-sol-artifact-1",
  "contractName": "VersionA",
  "sourceName": "contracts/EtherRouter/VersionA.sol",
  "abi": [
    {
      "constant": false,
      "inputs": [],
      "name": "setValue",
      "outputs": [],
      "payable": false,
      "stateMutability": "nonpayable",
      "type": "function"
    },
    {
      "inputs": [],
      "payable": false,
      "stateMutability": "nonpayable",
      "type": "constructor"
    }
  ],
  "bytecode": "0x6080604052348015600f57600080fd5b50606380601d6000396000f3fe6080604052348015600f57600080fd5b506004361060285760003560e01c80634fa519fa14602d575b600080fd5b60336035565b005b56fea165627a7a723058200c167d1065edeb65661ca966a614c40ed15588d7fb4e18aeeb13b0f3cbbe4e2c0029",
  "deployedBytecode": "0x6080604052348015600f57600080fd5b506004361060285760003560e01c80634fa519fa14602d575b600080fd5b60336035565b005b56fea165627a7a723058200c167d1065edeb65661ca966a614c40ed15588d7fb4e18aeeb13b0f3cbbe4e2c0029",
  "linkReferences": {},
  "deployedLinkReferences": {}
}