{
  "_format": "hh-sol-artifact-1",
  "contractName": "Factory",
  "sourceName": "contracts/EtherRouter/Factory.sol",
  "abi": [
    {
      "constant": true,
      "inputs": [],
      "name": "versionB",
      "outputs": [
        {
          "name": "",
          "type": "address"
        }
      ],
      "payable": false,
      "stateMutability": "view",
      "type": "function"
    },
    {
      "constant": false,
      "inputs": [],
      "name": "deployVersionB",
      "outputs": [],
      "payable": false,
      "stateMutability": "nonpayable",
      "type": "function"
    },
    {
      "constant": false,
      "inputs": [],
      "name": "deployVersionA",
      "outputs": [],
      "payable": false,
      "stateMutability": "nonpayable",
      "type": "function"
    },
    {
      "constant": true,
      "inputs": [],
      "name": "versionA",
      "outputs": [
        {
          "name": "",
          "type": "address"
        }
      ],
      "payable": false,
      "stateMutability": "view",
      "type": "function"
    },
    {
      "inputs": [],
      "payable": false,
      "stateMutability": "nonpayable",
      "type": "constructor"
    }
  ],
  "bytecode": "0x608060405234801561001057600080fd5b50610292806100206000396000f3fe608060405234801561001057600080fd5b506004361061004c5760003560e01c806304d2eb381461005157806381b5a89e146100755780638ca0921d1461007f578063d1cd038414610087575b600080fd5b61005961008f565b604080516001600160a01b039092168252519081900360200190f35b61007d61009e565b005b61007d6100e9565b610059610134565b6001546001600160a01b031681565b6040516100aa90610143565b604051809103906000f0801580156100c6573d6000803e3d6000fd5b50600180546001600160a01b0319166001600160a01b0392909216919091179055565b6040516100f59061014f565b604051809103906000f080158015610111573d6000803e3d6000fd5b50600080546001600160a01b0319166001600160a01b0392909216919091179055565b6000546001600160a01b031681565b608b8061015c83390190565b6080806101e78339019056fe6080604052348015600f57600080fd5b50606d8061001e6000396000f3fe6080604052348015600f57600080fd5b506004361060325760003560e01c8063441a7a271460375780634fa519fa146037575b600080fd5b603d603f565b005b56fea165627a7a72305820866ddbb701d2a0c27fd373a97dbf3bcb26570e6e21148df9026a4e77ee0abe4d00296080604052348015600f57600080fd5b50606380601d6000396000f3fe6080604052348015600f57600080fd5b506004361060285760003560e01c80634fa519fa14602d575b600080fd5b60336035565b005b56fea165627a7a723058200c167d1065edeb65661ca966a614c40ed15588d7fb4e18aeeb13b0f3cbbe4e2c0029a165627a7a7230582020b5b90d0839aaca3296f50c34636bc4d6e4d4e2ba90ca5cfc5bc9d96b2611840029",
  "linkReferences": {},
  "deployedLinkReferences": {}
}