{
  "_format": "hh-sol-artifact-1",
  "contractName": "Resolver",
  "sourceName": "contracts/EtherRouter/Resolver.sol",
  "abi": [
    {
      "constant": false,
      "inputs": [
        {
          "name": "signature",
          "type": "string"
        },
        {
          "name": "destination",
          "type": "address"
        }
      ],
      "name": "register",
      "outputs": [],
      "payable": false,
      "stateMutability": "nonpayable",
      "type": "function"
    },
    {
      "constant": true,
      "inputs": [
        {
          "name": "sig",
          "type": "bytes4"
        }
      ],
      "name": "lookup",
      "outputs": [
        {
          "name": "",
          "type": "address"
        }
      ],
      "payable": false,
      "stateMutability": "view",
      "type": "function"
    },
    {
      "constant": true,
      "inputs": [
        {
          "name": "signature",
          "type": "string"
        }
      ],
      "name": "stringToSig",
      "outputs": [
        {
          "name": "",
          "type": "bytes4"
        }
      ],
      "payable": false,
      "stateMutability": "pure",
      "type": "function"
    },
    {
      "constant": true,
      "inputs": [
        {
          "name": "",
          "type": "bytes4"
        }
      ],
      "name": "pointers",
      "outputs": [
        {
          "name": "",
          "type": "address"
        }
      ],
      "payable": false,
      "stateMutability": "view",
      "type": "function"
    }
  ],
  "bytecode": "0x608060405234801561001057600080fd5b50610359806100206000396000f3fe608060405234801561001057600080fd5b506004361061004c5760003560e01c80631e59c529146100515780636f68e8d2146101025780637c34752f14610145578063b5d7ccc314610206575b600080fd5b6101006004803603604081101561006757600080fd5b810190602081018135600160201b81111561008157600080fd5b82018360208201111561009357600080fd5b803590602001918460018302840111600160201b831117156100b457600080fd5b91908080601f016020809104026020016040519081016040528093929190818152602001838380828437600092019190915250929550505090356001600160a01b0316915061022d9050565b005b6101296004803603602081101561011857600080fd5b50356001600160e01b031916610276565b604080516001600160a01b039092168252519081900360200190f35b6101e96004803603602081101561015b57600080fd5b810190602081018135600160201b81111561017557600080fd5b82018360208201111561018757600080fd5b803590602001918460018302840111600160201b831117156101a857600080fd5b91908080601f01602080910402602001604051908101604052809392919081815260200183838082843760009201919091525092955061029b945050505050565b604080516001600160e01b03199092168252519081900360200190f35b6101296004803603602081101561021c57600080fd5b50356001600160e01b031916610312565b8060008061023a8561029b565b6001600160e01b0319168152602081019190915260400160002080546001600160a01b0319166001600160a01b03929092169190911790555050565b6001600160e01b0319166000908152602081905260409020546001600160a01b031690565b6000816040516020018082805190602001908083835b602083106102d05780518252601f1990920191602091820191016102b1565b6001836020036101000a038019825116818451168082178552505050505050905001915050604051602081830303815290604052805190602001209050919050565b6000602081905290815260409020546001600160a01b03168156fea165627a7a723058205f13b240c8fe29b5a223ff8d304d2b5ad425aabbb68a685e7d0295c3f0ba4d600029",
  "linkReferences": {},
  "deployedLinkReferences": {}
}